:020000040800F2
:100000000004002011020008310300083103000839
:1000100031030008310300083103000831030008F0
:1000200031030008310300083103000861030008B0
:1000300031030008310300083103000841040008BF
:1000400031030008310300083103000831030008C0
:1000500031030008310300083103000831030008B0
:10006000310300083103000831030008211800089B
:100070005118000881180008C1180008011900086B
:1000800041190008811900083103000831030008F4
:100090003103000831030008310300083103000870
:1000A0003103000831030008310300083103000860
:1000B0003103000831030008310300083103000850
:1000C0003103000831030008310300083103000840
:1000D00031030008B1230008D1230008F1230008F0
:1000E0003103000831030008310300083103000820
:1000F0003103000831030008310300083103000810
:1001000031030008310300083103000831030008FF
:1001100011240008310300083103000831030008EE
:10012000C1190008011A0008411A0008811A0008C4
:10013000C11A000831030008310300083103000828
:1001400031030008310300083103000831030008BF
:1001500031030008310300083103000831030008AF
:10016000310300083103000831030008310300089F
:10017000310300083103000831030008310300088F
:080180003103000831030008FF
:1001900010B582B001F064F900F0D2F940F60460C5
:1001A00041F20441C2F20000C2F2000102F088FAFA
:1001B000002442F6E11341F2880041224FF4D87145
:1001C000C0F600030094C2F2000000F0A1FD41F26D
:1001D000402042F6510300944FF4D8714122C0F6FA
:1001E0000003C2F2000000F093FD204602B010BDF3
:1001F000704700BFAFF30080AFF30080AFF3008023
:10020000FEE700BFAFF30080AFF30080AFF30080E4
:1002100072B6374880F30988022383F31488BFF34A
:100220006F8F344A344B9A420BD2D143C91821F014
:100230000301131F89184FF0553243F8042F8B42E6
:10024000FBD12E4A82420CD22D49131DC91A21F02E
:100250000301131F89184FF0553243F8042F8B42C6
:10026000FBD102F035F92749274B99420BD2C843FD
:10027000C01820F00300254C043000231A595A50AE
:1002800004338342FAD1224A224B9A420AD2D14302
:10029000C91821F00301131F8918002243F8042F05
:1002A0008B42FBD1FFF7A4FF1B4D1C4B9D420BD291
:1002B000EE43F618B608043D0136002455F8043F15
:1002C00001349847B442F9D1FFF762FF144D154B42
:1002D0009D420BD2EE43F618B608043D01360024C9
:1002E00055F8043F01349847B442F9D1FFF788FF2D
:1002F000000800200000002000040020000400206E
:10030000030800200008002020080020A033000877
:100310002008002018140020880100088801000827
:100320008801000888010008AFF30080AFF3008067
:10033000FEE700BFAFF30080AFF30080AFF30080B3
:1003400072B6FEE7AFF30080AFF30080AFF300803A
:1003500000F086F900F044FC00F09AF900DF00BFDD
:10036000EFF30983203383F30988002383F3118893
:10037000704700BFAFF30080AFF30080AFF30080A1
:1003800008B54FF46D43CEF200034FF44072C0F253
:10039000FA520021996007201021DA6000F0A8F8D5
:1003A0000A204FF4007100F0A3F80B208021BDE873
:1003B000084000F09DB800BFAFF30080AFF30080AD
:1003C000202383F311884FF46D43CEF200035B6862
:1003D00013F400631AD0EFF30983A3F1200282F330
:1003E000098811494FF080708A6943F8040C92F82B
:1003F000230009689268896858B1914294BF00222D
:10040000012262B1094A43F8082C704783F311882E
:100410007047914234BF00220122002AF2D1044ADF
:1004200043F8082C704700BF540D0020510300080A
:100430005C030008AFF30080AFF30080AFF30080EF
:1004400008B500F07DF9202383F3118800F040F90E
:1004500000F0B6F800F054F9002383F3118800F09F
:100460008FF9BDE80840FFF7ABBF00BFAFF30080D6
:100470002DE9F04FC1F80CD0D0F80CD0BDE8F08FCA
:1004800008B500F005F9002383F311882846A0473A
:1004900000F0B6FC08BD00BFAFF30080AFF30080F2
:1004A000F0B44FF461438408CEF20003C03400F08E
:1004B000030553F82470ED00FF26420906FA05F6FD
:1004C00027EA060601FA05F500F01F0002F16007B1
:1004D000012101FA00F02E4343F8246043F827007D
:1004E00043F82200F0BC7047AFF30080AFF3008008
:1004F00082084FF46D43CEF20003063200F0030091
:1005000030B4C00053F82250FF2404FA00F425EA66
:10051000040401FA00F10C4343F8224030BC704758
:10052000024B034A9B699A61FEE700BF540D00200D
:10053000B02B0008AFF30080AFF30080AFF3008072
:1005400030B583B0FFF71CFF00F00AFA00F0A0F905
:1005500000F02EFF00F074FF00F062F940F620007A
:100560004021C2F2000000F04BFB40F6545440F230
:100570000043C2F20003C2F200040125C36180F807
:100580002050A06100F054F8002383F3118862B674
:1005900042F63051A269C0F60001916140F6700048
:1005A000009340F22153C0212A46C0F60003C2F254
:1005B000000000F0ADFB03B030BD00BFAFF3008022
:1005C000F8B500F0FDF8164B9B6993F8232012B1A3
:1005D000013A83F823205A6A124D01325A62EB68BD
:1005E0002C680133AC42EB6018D0A768013FA760CC
:1005F000A7B92368E6685D60E7602B6000F080F8CB
:10060000002383F311882069B047202383F31188E6
:1006100000F05EF82C68A368002BEAD0F8BD00BF9C
:10062000540D0020440D0020AFF30080AFF3008094
:10063000054B1B6813B9054B1B6823B1044A054BD6
:100640001A60FFF77DBE7047300900203C0D002086
:10065000D02B0008400D0020AFF30080AFF30080E6
:10066000074B1B6810B5074C0BB9236823B1064A2A
:10067000064B1A60FFF764FE0123236010BD00BF24
:10068000300900203C0D0020D82B0008400D002030
:10069000084B1B6810B5084C2BB92368002B02DDF2
:1006A0000023236010BD054A054B1A60FFF748FE82
:1006B000F6E700BF300900203C0D0020E02B0008C9
:1006C000400D0020AFF30080AFF30080AFF3008057
:1006D000074B1B68002B10B5064C01DD236823B1C6
:1006E000054A064B1A60FFF72BFE0123236010BD5D
:1006F000300900203C0D0020E82B0008400D0020B0
:10070000084B1B68002B10B5074C05DD2368002B38
:1007100002DD0023236010BD044A054B1A60FFF779
:100720000FFEF6E7300900203C0D0020F02B0008FA
:10073000400D0020AFF30080AFF30080AFF30080E6
:1007400010B5202383F31188094C2368002B02DBAA
:10075000084A12682AB1084B084A1A60FFF7F0FDF0
:10076000236801332360002383F3118810BD00BF89
:10077000300900203C0D0020400D0020F82B00081F
:1007800010B5202383F31188094C2368002B02DD68
:10079000084A12682AB1084B084A1A60FFF7D0FDD0
:1007A0002368013B2360002383F3118810BD00BF41
:1007B000300900203C0D0020400D0020002C0008D6
:1007C000064B1B68002B04DB054B1B68002B00DD70
:1007D0007047044A044B1A60FFF7B2BD300900208D
:1007E0003C0D0020082C0008400D0020AFF30080D5
:1007F000064B1B6823B9064B1B68002B00DD7047B6
:10080000044A054B1A60FFF79BBD00BF300900206A
:100810003C0D0020102C0008400D0020AFF300809C
:1008200040F63413C2F200031A46402142F8081B76
:100830005A607047AFF30080AFF30080AFF30080E1
:100840000C490D4A10B4CC680C49536889691C6086
:100850005960816A996090F8204003F1100102F517
:10086000816081421C732ABF02F10803516053600A
:1008700010BC7047440D002034090020540D0020A6
:1008800040F64053C2F200031860FFF759BD00BFA5
:1008900040F64453C2F200034FF0FF329A60002248
:1008A0005B601B60DA607047AFF30080AFF30080DD
:1008B000F8B5054616460C461F46FFF781FF002D8A
:1008C00018BF002E1AD0CCB10E492F610B68EE6014
:1008D0009A68944204D91B68A41A9A68A242FAD36F
:1008E0005A68AC608B426A602B60156018BF9A68CA
:1008F0005D601CBFC4EB02049C60F8BD0248FFF7BA
:10090000BFFFE1E7440D0020202C0008AFF300807A
:1009100010B50446FFF754FF84B1E36893B1236830
:100920000A4A93421FBF9968A2688A189A6062684F
:10093000136023685A600023E36010BD0448FFF78A
:100940009FFFEAE70348FFF79BFFE8E7440D00201D
:10095000302C0008402C0008AFF30080AFF300807B
:1009600040F65453C2F2000300225B601B609A60A1
:100970005B611B61704700BFAFF30080AFF3008085
:1009800010B50446FFF71CFF94F82030002B18BF69
:100990000E2B0FD00022A168084B84F820201B6882
:1009A0009A688A42FBD25A682360626014605C6075
:1009B000204610BD0248FFF763FFEBE7540D00200F
:1009C000602C0008AFF30080AFF30080AFF300802D
:1009D00010B52023044683F31188FFF779FE94F8BD
:1009E00020300D2B11D8DFE803F016101007100B84
:1009F000101010101010100BA36A9A6801329A6040
:100A000094E80C001A60226853604FF0FF33A36231
:100A10002046FFF7B5FFFFF773FE002383F311882D
:100A200010BD00BFAFF30080AFF30080AFF30080D4
:100A300070B5114C0646FFF7DBFE2368A5691A68FE
:100A400085F82060142185F823100121546083F873
:100A5000201028462260A361FFF7F2FEEB69ADF19A
:100A60002402934202D90548FFF70AFFA0692946EC
:100A7000BDE87040FFF7FCBC540D0020742C00084A
:100A800070B50C4686B00646FFF7B2FE631C12D066
:100A90000B4D0C4AAB69214601A8FFF709FF304610
:100AA000FFF7C6FF049B13B101A8FFF731FFAB6945
:100AB000986A06B070BD3046FFF7BAFF004DF6E702
:100AC000540D0020D1090008AFF30080AFF300807F
:100AD00070B5144D04460E46FFF78AFEA869A26859
:100AE0008368A6629A4213D9FFF74AFF012306469C
:100AF00084F82030AC61FFF7A3FEF369ADF1240266
:100B000093420AD820463146BDE87040FFF7B0BC9A
:100B10002046BDE87040FFF733BF0348FFF7B0FE43
:100B2000F0E700BF540D0020742C0008AFF30080E4
:100B300038B5104C2368A5691A68012183F8201084
:100B40001421546085F8231028462260A361FFF722
:100B500017FF2846FFF774FEEB69ADF124029342BC
:100B600002D90548FFF78CFEA0692946BDE8384048
:100B7000FFF77EBC540D0020742C0008AFF30080FA
:100B800070B5144E3368B5691A68AC6856600121B7
:100B90003260002283F82010B36185F8202000E045
:100BA0001B689A68A242FBD85A682B606A6015607D
:100BB0005D602846FFF744FEEB69ADF124029342E5
:100BC00002D90548FFF75CFEB0692946BDE87040D0
:100BD000FFF74EBC540D0020742C0008AFF30080CA
:100BE000044B9B6993F823300BB1FFF7C9BFFFF7A4
:100BF0009FBF00BF540D0020AFF30080AFF3008013
:100C00002DE9F00140F65454C2F200040022656957
:100C10004164046100F13006816000F12C0C00F1A8
:100C20004C0745614FF0020860610121142480F8EF
:100C3000208080F8212080F823400264C263426251
:100C400080F8221082612861C0F82CC046630663D8
:100C5000C761BDE8F0017047AFF30080AFF30080DB
:100C60002DE9F04704460D4690469946FFF7A8FD4A
:100C7000002C18BFAF2D0AD9B8F17F0F94BF002305
:100C80000123B9F1000F08BF43F0010313B11B4862
:100C9000FFF7F6FD1A4EA5F12403E7187169E76026
:100CA00044F80390089B7B60164B3B62022384F858
:100CB00020301423002504F1300204F12C0A04F141
:100CC0004C0C84F8233001232661C4F8088061614C
:100CD0002046746184F82150C4F844802564E5639B
:100CE000656284F82230A5610C61C4F82CA06263AF
:100CF0002263C4F81CC0BDE8F08700BF902C000838
:100D0000540D002081040008AFF30080AFF3008091
:100D10002DE9F04F804683B0894692469B4600F10C
:100D20004C0700F1010400F14D06FF2504F8015CB9
:100D30000134B442FAD108EB0904A74204D2552584
:100D400007F8015BA742FBD1202383F31188FFF74B
:100D500087FC0C985B465246494600904046FFF798
:100D60007FFF00210446FFF7B3FEFFF791FC00234D
:100D700083F31188204603B0BDE8F08FAFF3008005
:100D800010B5044610B90948FFF77AFD202383F314
:100D90001188FFF765FC21460620FFF771FEFFF77B
:100DA00077FC002383F3118810BD00BFD02C00080E
:100DB00038B5104B9C692546A06255F82C0FA84207
:100DC00006D00368E362FFF7DBFDE06AA842F8D1D2
:100DD00094F821309B0704D1636922691A61226962
:100DE00053610E20FFF724FE0348BDE83840FFF7AB
:100DF00047BD00BF540D0020E02C0008AFF3008079
:100E000010B52023044683F31188FFF729FC204600
:100E1000BDE81040FFF7CCBFAFF30080AFF3008018
:100E200010B5044620B1002364602460A36010BDA7
:100E30000148FFF725FDF6E7502D0008AFF30080CD
:100E4000F8B53B4B05469C69FFF7D2FC002D6BD0F3
:100E5000A868002836D0A2688368934208D290F828
:100E600020308260042B45D0052B30D0002B1ED0C3
:100E70002B461B689D4203D09968A2689142F8D224
:100E80005A682360626004205C601460A562FFF70A
:100E9000CFFDAB68A34202D02648FFF7F1FC236CDC
:100EA000AB4213D02448BDE8F840FFF7E9BC90E816
:100EB0000C001A600268012180F820105360FFF7CF
:100EC0005FFDD5E7236CAC60EB602564F8BD41683D
:100ED0000368866A0B600768334679601B689E4228
:100EE00002D099689142F9D25A680360426010605A
:100EF0005860BDE741680368866A0B60076833463F
:100F000079601B689E420DD099689142F9D25A6867
:100F10000360426010605860B068A26883689342C2
:100F20009DD3A5E73346F2E70448FFF7A9FC8FE716
:100F3000540D0020702D0008842D0008602D00083D
:100F400010B52023044683F31188FFF789FB204660
:100F5000FFF776FFFFF79CFB002383F3118810BD9A
:100F60001E4A70B52023956983F31188FFF778FB3B
:100F70002C6C002C2DD0A368AB4203D01848FFF78F
:100F80007FFC2C6C2668E368A6422B641ED0696C3B
:100F90004BB11A689A4203D09268914238BF114609
:100FA000DB68002BF5D13368326CA96030462360D2
:100FB00000215C60A660E2603464FFF789FDFFF702
:100FC00067FB002383F31188204670BD0023A360D4
:100FD000F5E70448FFF754FC2C6CCCE7540D0020D7
:100FE000C02D0008AC2D0008AFF30080AFF30080E7
:100FF00038B504460D46FFF7E3FBC4B1E26B94F845
:10100000203045EA0201082BE1630CD0092B00D007
:1010100038BDA36A19408B42FAD12046FFF7B0FCD5
:101020000023836238BDA36A1942F6D138BD024855
:10103000FFF726FCE2E700BF2C2E0008AFF300808C
:1010400070B505460E46FFF7BBFB65B12C68A5429F
:1010500008D0201D0BC83343E360FFF7C9FF2468A5
:10106000A542F6D170BD0248FFF70AFCEEE700BFCB
:10107000502E0008AFF30080AFF30080AFF3008084
:1010800010B4024659B1084B9B69986244680D2020
:1010900083E814005360236010BCFFF7F1BC4FF0ED
:1010A000FF3010BC704700BF540D0020AFF300802C
:1010B00010B4C361019B40608A1800240060846002
:1010C00041618161C1600261036210BC704700BF71
:1010D00038B504460D46FFF773FBA2696369934276
:1010E000A2681AD00132A26003F8015B2269636131
:1010F00093420BD22068A0420DD0036823605C604D
:10110000FFF73EFC00238362184638BD2068E36881
:10111000A0426361F1D1002038BD002AE2D06FF017
:10112000030038BDAFF30080AFF30080AFF3008061
:10113000F8B504460E46202383F31188FFF790FA92
:10114000E3690BB120469847A5682046314655B95A
:10115000FFF796FF071EF7DAFFF79AFA2B4683F39D
:1011600011883846F8BDA3692269013DA56013F8CE
:10117000017B9342A36124BFE368A361FFF788FA70
:10118000002383F311883846F8BD00BFAFF3008019
:101190002DE9F0470446154688461E46C769002AD1
:1011A0003AD0202383F31188FFF75AFA08F1010A95
:1011B0004FF00009A8440FB12046B847A568204663
:1011C00031465DB9FFF75CFF0028F7D0FFF760FA02
:1011D0002B4683F311884846BDE8F087A369013D9B
:1011E000A56013F8012B0AF8012C2269A361934230
:1011F00024BFE368A361FFF74BFA002383F3118850
:10120000C24509F10109E6D0202383F31188FFF7D5
:1012100027FA0AF1010ACEE70148FFF731FBC0E7E0
:10122000902E0008AFF30080AFF30080AFF3008092
:1012300010B4C361019B40608C1800608260416102
:101240008161C1600461036210BC7047AFF300802C
:101250002DE9F041202304468846164683F3118881
:10126000FFF7FEF9A568204631465DB9FFF708FF94
:10127000071EF7DAFFF70CFA2B4683F3118838467E
:10128000BDE8F0816369013DA56003F8018B226927
:101290006361934224BFE3686361E3690BB1204655
:1012A0009847FFF7F5F9002383F311881F46384666
:1012B000BDE8F081AFF30080AFF30080AFF30080B2
:1012C00038B50446FFF77CFA6269A3699A42A268BE
:1012D00016D00132A26013F8015B2269A361934228
:1012E0000BD22068A04206D0036823605C60FFF741
:1012F00047FB00238362284638BDE368A361F0E71B
:10130000002AE6D06FF0020038BD00BFAFF30080C6
:101310002DE9F0470446164688469A46D0F81C90B8
:10132000002A39D0202383F31188FFF799F9002789
:10133000A56820466B1E0DB3A36018F8013B6569D4
:1013400005F8013B236965619D4224BFE368636141
:10135000B9F1000F00D0C847FFF79AF9002383F3D3
:1013600011880137013E14D0202383F31188FFF741
:1013700077F9A56820466B1E002DDDD12046514629
:10138000FFF77EFE0028D3D0FFF782F92B4683F3C8
:1013900011883846BDE8F0870148FFF771FAC1E7C8
:1013A000A42E0008AFF30080AFF30080AFF30080FD
:1013B00040F6745240F670534AF200010648C2F2F9
:1013C0000002C2F20003C2F2000120F0070021F087
:1013D00007011060196070471F140020AFF30080F0
:1013E00010B50446FFF7ECF9074A08491368096885
:1013F000E01D20F00700C91A88429ABF1818106033
:101400000023184610BD00BF740D0020700D002091
:1014100010B52023044683F31188FFF721F92046F5
:10142000FFF7DEFF0446FFF733F9002383F311884B
:10143000204610BDAFF30080AFF30080AFF3008013
:1014400040F67853C2F2000341F211410022C0F687
:10145000000103F1100019609A60DA60FFF7E0BC48
:1014600008B500F0CDFB00F0B3F943F2D020C0F690
:10147000000000F08DFC00F04BF800F0A1F8BDE892
:10148000084001F02DB800BFAFF30080AFF300803B
:101490000C30FFF77DBE00BFAFF30080AFF30080DC
:1014A0000C304FF0FF33FFF773BE00BFAFF3008087
:1014B0003030FFF72DBF00BFAFF30080AFF30080E7
:1014C00030304FF0FF33FFF723BF00BFAFF3008092
:1014D0000C30FFF72DBE00BFAFF30080AFF30080EC
:1014E0000C304FF0FF31FFF723BE00BFAFF3008099
:1014F0003030FFF7ADBE00BFAFF30080AFF3008028
:1015000030304FF0FF32FFF7A3BE00BFAFF30080D3
:1015100000F08EBFAFF30080AFF30080AFF3008028
:1015200070B542F620730546C0F60003044645F840
:10153000043B82B0656001250B46164604F1540158
:101540001022257200F10C000094FFF7B1FD009409
:1015500004F1300004F1640110223346FFF768FE05
:1015600002B070BDAFF30080AFF30080AFF3008036
:1015700038B504460D46FFF723F9D4B163693BB192
:1015800004F10C002946FFF7A3FD00280BDB38BD52
:10159000201D0421FFF754FD04F10C002946FFF73C
:1015A00097FD0028F3DA201D8021BDE83840FFF7C1
:1015B00047BD0248FFF764F9E0E700BFF82E0008D6
:1015C00000F0DEBCAFF30080AFF30080AFF300802B
:1015D000002301220270436083600C30FFF720BCBF
:1015E000002818BF002938B50D46044617D020231F
:1015F00083F31188FFF734F82378013B012B02D9DC
:101600000948FFF73DF92046656000F011FD02230F
:101610002370FFF73DF8002383F3118838BD03489A
:10162000FFF72EF9E3E700BF502F0008402F000816
:1016300010B5044698B1202383F31188FFF710F802
:101640002378022B02D00848FFF71AF9204600F051
:10165000A7FDFFF71DF8002383F3118810BD034891
:10166000FFF70EF9E7E700BF8C2F00087C2F00087A
:1016700010B5044698B1202383F31188FEF7F0FFDC
:101680002378022B02D00848FFF7FAF8204600F032
:1016900097FDFEF7FDFF002383F3118810BD03487B
:1016A000FFF7EEF8E7E700BFAC2F00089C2F00081B
:1016B000002818BF0029F8B50D46044617461E46F7
:1016C0002DD0002A18BF002B29D0202383F31188A6
:1016D000FEF7C6FF2378022B02D01348FFF7D0F89D
:1016E00063681B6813B11148FFF7CAF8032323701E
:1016F0002046334629463A4600F072FDA36813B1EE
:101700000B48FFF7BDF80B4B9B690220A360FFF766
:101710008FF9FEF7BDFF002383F31188F8BD06485B
:10172000FFF7AEF8D1E700BFC4300008D83000089A
:10173000A4300008540D0020B4300008AFF300803E
:1017400010B5044628B104F10C00BDE81040FFF7C5
:10175000F7BB0248FFF794F8F5E700BF50310008E7
:1017600008B518B1BDE80840FFF7FABB0148FFF71C
:1017700087F8F7E764310008AFF30080AFF300802B
:101780004FF48053CEF200035B688360704700BF64
:101790004FF48053CEF20003094A5B68816810B4AD
:1017A0001468C2685B1A1B1B9342836088BFC360C6
:1017B00003D80269934238BF036110BC704700BF71
:1017C000980D0020AFF30080AFF30080AFF30080EE
:1017D00010B540F6985486B0C2F200040022226090
:1017E00004924FF480534FF0FF320592CEF2000383
:1017F00041F28172C0F600025B68019241F291727F
:10180000C0F6000201A803930292FFF7C1FF039BF9
:10181000236006B010BD00BFAFF30080AFF30080BF
:1018200010B5FEF78DFF0023C4F2020307481968C4
:1018300002680F2401F00F015C600AB14068904714
:10184000FEF79EFFBDE81040FEF7BABD9C0D0020DC
:1018500010B5FEF775FF0023C4F2020307481968AC
:101860008268F024C1F303115C600AB1C06890473C
:10187000FEF786FFBDE81040FEF7A2BD9C0D0020DC
:1018800010B5FEF75DFF0023C4F202030848196893
:1018900002694FF47064C1F303215C600AB14069CE
:1018A0009047FEF76DFFBDE81040FEF789BD00BF11
:1018B0009C0D0020AFF30080AFF30080AFF30080F9
:1018C00010B5FEF73DFF0023C4F202030848196873
:1018D00082694FF47044C1F303315C600AB1C0699E
:1018E0009047FEF74DFFBDE81040FEF769BD00BF11
:1018F0009C0D0020AFF30080AFF30080AFF30080B9
:1019000010B5FEF71DFF0023C4F202030848196852
:10191000026A4FF47024C1F303415C600AB1406A6B
:101920009047FEF72DFFBDE81040FEF749BD00BF10
:101930009C0D0020AFF30080AFF30080AFF3008078
:1019400010B5FEF7FDFE0023C4F202030848196833
:10195000826A4FF47004C1F303515C600AB1C06A3B
:101960009047FEF70DFFBDE81040FEF729BD00BF10
:101970009C0D0020AFF30080AFF30080AFF3008038
:1019800010B5FEF7DDFE0023C4F202030848196813
:10199000026B4FF07064C1F303615C600AB1406B8D
:1019A0009047FEF7EDFEBDE81040FEF709BD00BF11
:1019B0009C0D0020AFF30080AFF30080AFF30080F8
:1019C00010B5FEF7BDFE4FF48063C4F20203084871
:1019D0001968826B0F2401F00F015C600AB1C06BC3
:1019E0009047FEF7CDFEBDE81040FEF7E9BC00BF12
:1019F0009C0D0020AFF30080AFF30080AFF30080B8
:101A000010B5FEF79DFE4FF48063C4F20203084850
:101A10001968026CF024C1F303115C600AB1406CD8
:101A20009047FEF7ADFEBDE81040FEF7C9BC00BF11
:101A30009C0D0020AFF30080AFF30080AFF3008077
:101A400010B5FEF77DFE4FF48063C4F20203084830
:101A50001968826C4FF47064C1F303215C600AB1B1
:101A6000C06C9047FEF78CFEBDE81040FEF7A8BCA6
:101A70009C0D0020AFF30080AFF30080AFF3008037
:101A800010B5FEF75DFE4FF48063C4F20203084810
:101A90001968026D4FF47044C1F303315C600AB100
:101AA000406D9047FEF76CFEBDE81040FEF788BC25
:101AB0009C0D0020AFF30080AFF30080AFF30080F7
:101AC00010B5FEF73DFE4FF48063C4F202030848F0
:101AD0001968826D4FF47024C1F303415C600AB150
:101AE000C06D9047FEF74CFEBDE81040FEF768BCA5
:101AF0009C0D0020AFF30080AFF30080AFF30080B7
:101B00000D4B30B400220D4D0D4C1A60114613469A
:101B1000E8580C330160A1500832902BF8D1002115
:101B20004FF48063C4F20201C4F202034FF0FF32AB
:101B30004A605A6030BC7047FC0D0020C03100087C
:101B40009C0D0020AFF30080AFF30080AFF3008066
:101B50002DE9F041044684B0002840D0254E657A36
:101B60003768012000FA05FC1CEA070F34D122482F
:101B700000EBC5084CEA0707C8F804307B061CBF19
:101B80004FF48053C4F20203376040F835201EBF83
:101B9000586940F00100586117F4786F1FBF4FF487
:101BA0008053C4F20203586940F0020018BF586124
:101BB000236860681D6825F001051D60257A0F26E1
:101BC00006FA05F6002506601D60104622B1A07ACF
:101BD0000901FEF765FC284604B0BDE8F08107481E
:101BE000039102920193FEF74BFE019B029A039927
:101BF000B4E700BFFC0D00209C0D002080310008E0
:101C00004FF48053C4F202034EF2100270B500216B
:101C1000CEF200024FF0FF3541F63F141E691D6100
:101C2000C0F2010419614EF6F050DE68DD60CEF2BC
:101C30000000D9605460072491601460C4684FF4B8
:101C40008052CEF2000244F08074C460106840F00C
:101C500001001060D8694FF4E042C4F2000240F085
:101C60008050D861106840F4807010601A6A02F4E5
:101C70004072B2F5007F1EBF4FF480321A621962C3
:101C80004FF48053C4F202031A6A120407D41A6A8A
:101C900042F400721A621A6A42F400421A62FFF7B2
:101CA0002FFF4FF48052C4F2020200239169C4F264
:101CB000010341F0010191611A6842F020021A60AB
:101CC00070BD00BFAFF30080AFF30080AFF30080C2
:101CD0004FF48053C4F2020319461A6842F001021D
:101CE0001A600A684FF480539007C4F20203F8D5D3
:101CF0001A6802F0F9021A60002219465A604A680E
:101D00004FF4805312F00C0FC4F20203F7D11A689B
:101D100042F4A0221A6019460A684FF480539203D5
:101D2000C4F20203F8D55A6A42F001025A62194617
:101D30004A6A4FF480539007C4F20203F8D54FF477
:101D40001052C0F21D025A604FF48072DA623022E3
:101D50001A631A6842F080721A6019684FF4805250
:101D60008901C4F20202F8D54FF40053C4F2020311
:101D700012211960536843F002035360536803F063
:101D80000C03082BFAD17047AFF30080AFF300804B
:101D90004FF48053C4F202035A6942F4FC025A61C0
:101DA00041684FF090424FF48063516081689160C8
:101DB000C168D160016951614169116281695162F3
:101DC00001681160016AC4F600034FF400625960B3
:101DD000416A9960816AD960C16A5961016B19626F
:101DE000416B5962C1691960C4F60002C36B53604C
:101DF000036C9360436CD360836C5361C36C136258
:101E0000036D5362816B4FF440631160816DC4F6C2
:101E100000034FF480525960C16D9960016ED96022
:101E2000416E5961816E1962C16E5962416D1960CE
:101E3000C4F60002436F5360836F9360C36FD36037
:101E4000D0F880305361D0F884301362D0F88830F5
:101E50005362016F4FF4A0531160D0F89020C4F684
:101E600000035A60D0F894209A60D0F89820DA6085
:101E7000D0F89C205A61D0F8A0201A62D0F8A42093
:101E80005A62D0F88C201A60704700BFAFF3008010
:101E9000036A23F00F030362036A19439307016285
:101EA00010D5836823F0030383608368826813433B
:101EB0008360436823F001034360426843689BB238
:101EC00013434360036823F003030360036802685D
:101ED00013430360C36823F00303C360C368C2688D
:101EE0001343C360704700BFAFF30080AFF30080BF
:101EF0000B0700D47047FEF723BA00BFAFF3008092
:101F00000A07F8B5044637D4626A236A6568196817
:101F10005E682D6892E88100D0F800C02CF0010CBA
:101F2000C0F800C0107A0F2202FA00F0386008688A
:101F300020F0010008601B7A02FA03F23260C5B19A
:101F4000042323702046A8472378042B11D0A568CA
:101F500075B10026A660202383F31188FEF7B8FB35
:101F60002846FEF70DFDFEF7CBFB334683F31188C1
:101F7000F8BD02232370EAE7FEF7E2F9C4E700BFE9
:101F80002DE9F84340F6006340F60466C2F200060D
:101F9000C2F20003224F4FF6FF72304640F634651E
:101FA000C2F200051A80FFF713FB4FF4405307F10C
:101FB0000C0241F20A0941F21808C4F20103284652
:101FC00040F66464C2F20004F36137627262C6F8DC
:101FD0002890C6F82C80FFF7FBFA4FF4605307F106
:101FE0002402C4F2000307F118012046EB616A6283
:101FF0002962C5F82890C5F82C80FFF7E9FA4FF45C
:10200000705307F14802C4F200035437E3612262BF
:102010006762C4F82890C4F82C80BDE8F88300BF3C
:10202000CC310008AFF30080AFF30080AFF3008045
:1020300038B50378012B044624D0C3696168A56ACA
:102040008A89498902F47060B0F5E06FE06A20F493
:10205000706025F4706588BF40F4A06041F4417160
:10206000E06288BF45F4A06542F0070289B2002013
:10207000A562188019809A801A8892B242F04002B4
:102080001A8038BD384DA8420FD0384DA84225D00F
:10209000374DA84239D0216A626AE369086811683D
:1020A00003F10C0282608A60C8E7006A314A0A21A3
:1020B0002346FFF74DFD00284AD1686A2E4A2A4B75
:1020C0000A21FFF745FD00283ED14FF48053C4F2AA
:1020D00002039A6942F480529A61DCE7006A254A59
:1020E0000A212346FFF734FD50BB686A224A1F4B82
:1020F0000A21FFF72DFDF8B94FF48053C4F2020313
:10210000DA6942F48042DA61C5E7006A194A0A21B5
:102110002346FFF71DFD18BB686A174A144B0A21B6
:10212000FFF716FDC0B94FF48053C4F20203DA6919
:1021300042F40042DA61AEE71048FEF7A1FBDBE7AC
:102140000F48FEF79DFBD0E70E48FEF799FBBCE772
:102150000D48FEF795FBB0E70C48FEF791FBE2E770
:102160000B48FEF78DFBD7E7040E0020340E00204D
:10217000640E0020011F0008F11E00088C320008C8
:10218000783200086432000850320008B432000887
:10219000A0320008AFF30080AFF30080AFF30080FF
:1021A00043681A895B68012101FA02F292B25A83EC
:1021B000704700BFAFF30080AFF30080AFF3008043
:1021C00043681A895B68012101FA02F292B21A830C
:1021D000704700BFAFF30080AFF30080AFF3008023
:1021E000F0B4046A476A866AC56A24683868E3609E
:1021F00046F0800645F0800561602660C26041605F
:102200000560236843F001032360036843F0010382
:102210000360F0BC704700BFAFF30080AFF30080F5
:102220004FF46053C4F201031A6842F080021A604E
:10223000704700BFAFF30080AFF30080AFF30080C2
:102240004FF48843C4F200031A6842F080021A6017
:10225000704700BFAFF30080AFF30080AFF30080A2
:102260004FF49043C4F200031A6842F080021A60EF
:10227000704700BFAFF30080AFF30080AFF3008082
:102280004FF49843C4F200031A6842F080021A60C7
:10229000704700BFAFF30080AFF30080AFF3008062
:1022A0002DE9F041456F2F68EC69230706462C6243
:1022B0003CD1E3052AD4A00618D4390601D522065C
:1022C00056D4630610D5202383F31188FEF700FA55
:1022D000301D1021FEF7B4FEFEF712FA002383F33F
:1022E000118827F040072F60BDE8F081202383F399
:1022F0001188FEF7EDF9A98C3046C9B2FFF738F91D
:10230000FEF7FEF9002383F31188D6E7202383F339
:102310001188FEF7DDF9301D4FF40071FEF790FED5
:10232000FEF7EEF9002383F31188C4E714F0080FD9
:102330000CBF4FF000084FF08008E00748BF48F09E
:102340002008A10748BF48F04008620748BF48F48A
:102350008078202383F31188FEF7BAF9301D4146B7
:10236000FEF76EFEFEF7CCF9002383F31188A0E799
:10237000202383F31188FEF7ABF906F13000FEF756
:102380009FFF0028A4BF80B2288505DBFEF7B8F9BF
:10239000002383F3118894E7301D0821FEF750FED7
:1023A00027F0C00343F040032B60EFE7AFF300805A
:1023B00008B5FEF7C5F940F69460C2F20000FFF7D9
:1023C0006FFFFEF7DDF9BDE80840FDF7F9BF00BF7C
:1023D00008B5FEF7B5F940F61070C2F20000FFF73D
:1023E0005FFFFEF7CDF9BDE80840FDF7E9BF00BF8C
:1023F00008B5FEF7A5F940F68C70C2F20000FFF7B1
:102400004FFFFEF7BDF9BDE80840FDF7D9BF00BF9B
:1024100008B5FEF795F941F20800C2F20000FFF797
:102420003FFFFEF7ADF9BDE80840FDF7C9BF00BFAB
:10243000F8B540F69464C2F2000442F2212220462C
:102440000021C0F6000240F61077FFF769F8C2F2EB
:1024500000074FF460534FF4A24542F24122C0F20C
:102460002525C4F2010338460021C0F6000240F6DB
:102470008C76C2F200066367A567FFF751F84FF448
:10248000884342F26122C4F2000330460021C0F6C4
:10249000000241F20804C2F200047B67BD67FFF747
:1024A0003FF84FF4904342F28122C4F200032046E9
:1024B0000021C0F600027367B567FFF731F84FF4EB
:1024C0009843C4F200036367A567F8BDAFF30080CB
:1024D000FFF7FEBBAFF30080AFF30080AFF30080E7
:1024E000704700BFAFF30080AFF30080AFF3008010
:1024F00000B5114B85B04FF440524FF480518DF828
:1025000007001960C4F20102118901F0020189B2C9
:1025100059B10A4801210DF107020DF10F03FFF730
:10252000C7F89DF80F0005B000BD1968481E186077
:102530000029E9D1FEE700BF00080020040E0020BA
:1025400038B515464FF48053012D04460A78C4F679
:10255000000319D962F03F020A7008225A830878F2
:10256000FFF7C6FF013DADB2013565190020FFF749
:10257000BFFF04F8010BAC42F8D14FF48053C4F60E
:10258000000308221A8338BD62F07F020A70082215
:102590005A830878FFF7ACFF002DE3D1EDE700BFC9
:1025A0002DE9F0074C88B4F5827F2FD08388B1F8ED
:1025B00000C0B1F804A0B1F80690B1F808804F89C6
:1025C0008E89CD8923F470631B0444EA0C0C1B0C28
:1025D00043EA0A034CEA090C83804CEA080C04889D
:1025E00093814CEA0703334304F441542B432343C0
:1025F0009BB203805381838B0A8A23F400631B04FC
:102600001B0C83830282BDE8F0077047B1F800908D
:10261000CC88B1F80880B1F80AC08F890388CE89C8
:102620008D8849EA040444F4827444EA080444EAC4
:102630000C043C4303F4415334431C43A4B20480D0
:102640008388548123F470631B041B0C2B43838009
:102650009381D0E7AFF30080AFF30080AFF3008049
:10266000012A38B5154604461DD90A784FF480531F
:1026700042F04002C4F600030A7008225A83087828
:10268000FFF736FF013DADB20135651914F8010BB6
:10269000FFF72EFFAC42F9D14FF48053C4F600038C
:1026A00008221A8338BD4FF48053C4F60003082271
:1026B0005A830878FFF71CFF002DE3D1ECE700BF39
:1026C000F0B54FF48054C4F2020487B0A36943F418
:1026D0008053A361636943F007036361636943F453
:1026E00000136361636943F400136361636943F436
:1026F000001363610F46054605214FF090404FF4EB
:102700002072FFF7C5FB05214FF090404FF4407257
:10271000FFF7BEFB05214FF090404FF46072FFF7CA
:10272000B7FB052104224FF09040FFF7B1FB0521D4
:1027300000224FF09040FFF7ABFB052100224FF045
:102740009040FFF7A5FB052118224FF09040FFF7BE
:102750009FFB4FF090434FF400129A614FF4000238
:102760009A614FF480029A61A369EE6943F4805341
:10277000A361A36943F48053A36103233B814FF416
:10278000E063ADF808304FF40073ADF80E304FF44D
:1027900080551023C4F60005ADF81030072300243F
:1027A000304601A93A46ADF814307D604FF482738B
:1027B000ADF80630ADF80440ADF80A40ADF80C4075
:1027C000ADF81240FFF7ECFEB38823F480531B04EE
:1027D0001B0CB380B3889BB243F48053B380B288A0
:1027E0003388BA819BB243F040033380338805219C
:1027F0007B8102222846FFF74BFB05212846224613
:10280000FFF746FB182228460521FFF741FB4FF44E
:1028100000230521AB6108232B8301222846FFF703
:1028200037FB284605212246FFF732FB28460521C3
:102830001822FFF72DFB284605212246FFF728FB2B
:102840000123AB614FF40033AB6107B0F0BD00BFB3
:1028500008B5054B054A9B699A610548FEF770FF6C
:102860000348FEF77DFFF8E7540D00208033000891
:10287000040E0020AFF30080AFF30080AFF30080C0
:1028800038B5124C124D2378287098420DD0012291
:102890004FF48053C4F6000302FA00F080B21883AC
:1028A0004FF4E170FEF76CFA237801214FF4805267
:1028B00001FA03F3C4F600029BB253834FF4E170B4
:1028C000FEF75EFA2B78237038BD00BF011400209C
:1028D00004080020AFF30080AFF30080AFF3008066
:1028E000284B1B8840F6FF72934232D903F5805182
:1028F00089B291422DD903F5405189B241F6FF7258
:1029000091422CD903F5A04189B291422AD903F50D
:10291000E04189B2914228D903F5FF417F3189B264
:1029200040F6FE70814217D9A3F5E04189B2814299
:1029300012D9A3F5A04189B291421CD9A3F5405107
:1029400089B291421AD9A3F580539BB293420FD911
:1029500070470920FFF794BF0D20FFF791BF0A20B1
:10296000FFF78EBF0B20FFF78BBF0C20FFF788BF50
:102970000820FFF785BF0E20FFF782BF0F20FFF76B
:102980007FBF00BFFC130020AFF30080AFF30080D7
:1029900030B5A0F1200383B0DBB2182B8DF807000F
:1029A00007D844F23F02C0F2FD1222FA03F2D20726
:1029B00001D403B030BD064CE55C25EA01050D43AA
:1029C000E0180DF107010122E554FFF749FEF0E799
:1029D00008080020AFF30080AFF30080AFF3008061
:1029E0002DE9F84F664B674A9B69674C674F9A61C0
:1029F0006748FEF7A5FE67496548FEF7F1FD6448A4
:102A0000FEF716FE20200821FFF7C2FF2320002139
:102A1000FFF7BEFF2E204021FFF7BAFF0F23012250
:102A20005D4859492370FFF78BFD282301225B483D
:102A300055492370FFF784FD292301225848524944
:102A40002370FFF77DFD2A23012256484E4923704B
:102A5000FFF776FD2B23012253484B492370FFF7E4
:102A60006FFD2C230122514847492370FFF768FD71
:102A700001222D23444945482370FFF761FD444856
:102A8000FEF7F6FD41F2F230C2F2000041F2FA31F7
:102A90000378D42B01BF4FF48053C4F600034FF4E6
:102AA00000721A8341F2FE33C2F2000341F2144273
:102AB000187841F2F033C2F20002C2F20003157836
:102AC0001A783B7841F23829C2F20001C2F20009BB
:102AD000D243DB43DBB2D2B20E7899F800104FFA42
:102AE00082FE4FFA83F94EEAC91E41F28409F64389
:102AF000C2F20009F6B289F800604FFA86F841F296
:102B0000F336ED43C2F20006EDB235704FFA85FBA5
:102B100041F28505C043C2F20005C0B228704FFAE9
:102B200080FC41F2F83941F2FF3641F2F430C2F252
:102B30000000C943C2F20009C2F20006C9B248EA65
:102B4000CB18A9F800804FFA81FA3170027041F277
:102B5000F63941F2004141F2FC32C2F20001C2F208
:102B60000002C2F200094CEACA1CA9F800C00B70AE
:102B7000A2F800E0FFF7B4FE0548FEF7F1FD37E7E5
:102B8000540D002090330008F1130020391200206A
:102B9000040E002004140020F2130020FA13002079
:102BA00014140020FE13002038120020F01300201F
:102BB00069646C6500000000000000000000000077
:102BC000535623310000000053562332000000000A
:102BD00053562333000000005356233400000000F6
:102BE00053562335000000005356233600000000E2
:102BF00053562337000000005356233800000000CE
:102C00005356233900000000535623313000000092
:102C10005356233131000000000000000000000086
:102C20002263685654536574492228290000000025
:102C3000226368565452657365744922282900003E
:102C40006368565452657365744928292C202331D2
:102C50000000000000000000000000000000000074
:102C6000636853636852656164794928292C20237D
:102C700031000000737461636B206F766572666C5F
:102C80006F7700000000000000000000000000005E
:102C90002263685468644372656174654922282917
:102CA00000000000226368546864536574507269C0
:102CB0006F726974792228290000000063685468E3
:102CC00064526573756D6528292C2023310000003E
:102CD000226368546864536C65657022282900007B
:102CE0006368546864457869745328292C2023311B
:102CF00000000000226368546864576169742228E8
:102D00002900000063685468645761697428292C9D
:102D10002023310063685468645761697428292C42
:102D2000202332000000000000000000000000002E
:102D30006D61696E0016421104044C080C101418E1
:102D40001C202122232400000000000000000000BD
:102D50002263684D7478496E697422282900000046
:102D60002263684D74784C6F636B532228290000EE
:102D700063684D74784C6F636B5328292C20233182
:102D80000000000063684D74784C6F636B53282912
:102D90002C202332000000002263684D74785472A6
:102DA000794C6F636B5322282900000063684D74CF
:102DB00078556E6C6F636B28292C2023310000003E
:102DC00063684D7478556E6C6F636B28292C2023D3
:102DD0003200000063684D7478556E6C6F636B53FE
:102DE00028292C202331000063684D7478556E6CBF
:102DF0006F636B5328292C20233200000000000051
:102E000022636845767452656769737465724D61B3
:102E1000736B222829000000226368457674556E82
:102E20007265676973746572222829002263684598
:102E300076745369676E616C49222829000000008E
:102E40002263684576745369676E616C2228290095
:102E500022636845767442726F6164636173744D76
:102E600061736B492228290022636845767444699E
:102E700073706174636822282900000063684576D6
:102E800074446973706174636828292C20233100AD
:102E900022636849515265616454696D656F757448
:102EA000222829002263684F51577269746554695A
:102EB0006D656F7574222829000000000000000075
:102EC00022736453746172742228290073645374EA
:102ED00061727428292C202331000000227364536E
:102EE000746F702228290000736453746F7028294E
:102EF0002C20233100000000227364496E636F6D43
:102F0000696E674461746149222829002273645202
:102F100065717565737444617461492228290000E4
:102F2000C1140008A114000801150008E1140008EC
:102F3000F1140008D1140008B1140008911400081D
:102F40002273706953746172742228290000000092
:102F5000737069537461727428292C202331000026
:102F60002273706953746F7022282900737069533B
:102F7000746F7028292C202331000000227370699F
:102F800053656C65637422282900000073706953CF
:102F9000656C65637428292C2023310022737069C5
:102FA000556E73656C6563742228290073706955CA
:102FB0006E73656C65637428292C20233100000032
:102FC00022737069537461727449676E6F726522FF
:102FD00028290000737069537461727449676E6FB9
:102FE000726528292C2023310000000022737069AB
:102FF000537461727445786368616E67652228292D
:1030000000000000737069537461727445786368DE
:10301000616E676528292C202331000022737069B6
:10302000537461727453656E642228290000000095
:10303000737069537461727453656E6428292C200F
:103040002331000022737069537461727452656396
:1030500065697665222829007370695374617274FA
:103060005265636569766528292C202331000000AC
:103070002273706949676E6F72655761697422289F
:103080002900000073706949676E6F726528292CEA
:103090002023310073706949676E6F726528292C8F
:1030A000202332005F7370695F7761697428292C6F
:1030B000202331002273706945786368616E67650B
:1030C0002228290073706945786368616E676528F6
:1030D000292C2023310000007370694578636861F2
:1030E0006E676528292C2023320000002273706946
:1030F00053656E642228290073706953656E6428D5
:10310000292C20233100000073706953656E6428F8
:10311000292C2023320000002273706952656365F8
:1031200069766522282900007370695265636569B4
:10313000766528292C202331000000007370695225
:1031400065636569766528292C202332000000001C
:1031500022737069416371756972654275732228C3
:10316000290000002273706952656C6561736542C5
:1031700075732228290000000000000000000000F4
:1031800022646D61416C6C6F636174652228290053
:1031900022646D6152656C656173652228290000A7
:1031A000646D6152656C6561736528292C2023313B
:1031B000000000000000000000000000000000000F
:1031C000080002400400024000000B001C00024006
:1031D0000400024004010C003000024004000240E0
:1031E00008020D0044000240040002400C030E00DF
:1031F000580002400400024010040F006C0002401E
:103200000400024014051000800002400400024047
:1032100018061100080402400404024000073800A8
:103220001C04024004040240040839003004024037
:103230000404024008093A00440402400404024025
:103240000C0A3B005804024004040240100B3C00EE
:103250007370695F6C6C645F737461727428292C7D
:10326000202331007370695F6C6C645F73746172EA
:103270007428292C202332007370695F6C6C645FA2
:10328000737461727428292C202333007370695F72
:103290006C6C645F737461727428292C2023340071
:1032A0007370695F6C6C645F737461727428292C2D
:1032B000202335007370695F6C6C645F7374617296
:1032C0007428292C20233600000000000000000094
:1032D00000A8802A0000000000FCC03C54111564C6
:1032E000FFFF00000000505500E00E0080A000002D
:1032F000C0000000C0F0000015055555FFFF00009C
:103300000000004400000000000000000000000079
:10331000000000F055555505FFFF000000000000BB
:10332000000000000000000000000000000000009D
:1033300055555555FFFF000000000000000000003B
:103340004000555500000000C000FFFF1555150155
:10335000FF0000000000000000000000000000006E
:10336000000000000F00000050555555FFFF000001
:10337000000000000000000000000000000000004D
:103380005350492074687265616420310000000068
:103390005350492074687265616420300000000059
:1033A00000100000FF000000070000000000000007
:1033B000000000000000000000000000000000000D
:04000005080001905E
:00000001FF
